:020000040000FA
:020000000528D1
:08000800B2290C200720231C83
:10001000282044205520072883169F012F30850073
:10002000831236309000073081002310C521203024
:10003000B8007420C0210630B8007420C0210230FE
:10004000B8007420C0210D30B8007420C021080011
:1000500083160C148312A20123140B178B160C3079
:10006000810010148B1708008B1210100B110C104C
:1000700023100E08A7000F08A600A208A50008007C
:10008000A20F080024140800AB01AA01A901A801CD
:100090004D204D204D204D200800270DAB00260D92
:1000A000AA00250DA900A80D0800AC01AD01AE0104
:1000B000AF01B001B101B201B301B401B50120300B
:1000C000B600AB0DAA0DA90DA80D353084000A307D
:1000D000B700800D0A300002031880008403B70BBC
:1000E0006928B60B61280034380EB9000310B90C2A
:1000F00003180514031C051085140000851000006A
:100100000310B90C03180514031C05108514000016
:10011000851000000310B90C03180514031C05100A
:1001200085140000851000000310B90C0318051495
:10013000031C0510851400008510000005108514AF
:1001400000008510000005108514000085100000D7
:1001500005108514000085100000051085140000AE
:1001600085100000000000000000000000000515E0
:100170000000000000000000000000000511000069
:1001800000000000000000000310B90C0318051463
:10019000031C051085140000851000000310B90C25
:1001A00003180514031C05108514000085100000B9
:1001B0000310B90C03180514031C05108514000066
:1001C000851000000310B90C03180514031C05105A
:1001D00085140000851000000510851400008510AE
:1001E000000005108514000085100000051085141E
:1001F0000000851000000510851400008510000027
:1002000000000000000000000000051500000000D4
:1002100000000000000000000511000000000000C8
:10022000000000000800380EB9000310B90C0318D4
:100230000514031C05108514000085100000031030
:10024000B90C03180514031C051085140000851053
:1002500000000310B90C03180514031C05108514C5
:100260000000851000000310B90C03180514031CCE
:10027000051085140000851000000510851400008D
:100280008510000005108514000085100000051081
:1002900085140000851000000514851400008510E9
:1002A0000000000000000000000000000515000034
:1002B0000000000000000000000005110000000028
:1002C0000000000000000310B90C03180514031C03
:1002D000051085140000851000000310B90C0318E8
:1002E0000514031C05108514000085100000031080
:1002F000B90C03180514031C0510851400008510A3
:1003000000000310B90C03180514031C0510851414
:100310000000851000000510851400008510000005
:1003200005108514000085100000051085140000DC
:1003300085100000051485140000851000000000E1
:100340000000000000000000051500000000000093
:100350000000000000000511000000000000000087
:100360000000080083128B13A000030EA1000B19DC
:1003700034200C184020210E8300A00E200E09000E
:1003800000000000000000000800CE30BA00083075
:10039000BB00BA0BCC29BB0BC929CE290000080031
:02400E00D43F9D
:00000001FF
